:100000000C94B0050C94D8050C94D8050C94D80524
:100010000C94D8050C94D8050C94D8050C94D805EC
:100020000C94D8050C94D8050C94D8050C94D805DC
:100030000C94D8050C94D8050C94D8050C94D805CC
:100040000C94C2170C94D8050C9432180C940C180C
:100050000C94D8050C94D8050C94D8050C94D805AC
:100060000C9464180C94D80500000000003E5B4F0F
:100070005B3E3E6B4F6B3E1C3E7C3E1C183C7E3C08
:10008000181C577D571C1C5E7F5E1C00183C180016
:10009000FFE7C3E7FF0018241800FFE7DBE7FF30A6
:1000A000483A060E2629792926407F050507407F14
:1000B00005253F5A3CE73C5A7F3E1C1C08081C1C87
:1000C0003E7F14227F22145F5F005F5F06097F017D
:1000D0007F006689956A606060606094A2FFA29468
:1000E00008047E040810207E201008082A1C080836
:1000F0001C2A08081E101010100C1E0C1E0C303884
:100100003E3830060E3E0E06000000000000005F84
:1001100000000007000700147F147F14242A7F2AA0
:100120001223130864623649562050000807030062
:10013000001C2241000041221C002A1C7F1C2A08AE
:10014000083E080800807030000808080808000011
:1001500060600020100804023E5149453E00427F85
:10016000400072494949462141494D331814127FD4
:100170001027454545393C4A494931412111090774
:100180003649494936464949291E000014000000F5
:1001900040340000000814224114141414140041C7
:1001A00022140802015909063E415D594E7C121184
:1001B000127C7F494949363E414141227F414141BC
:1001C0003E7F494949417F090909013E4141517337
:1001D0007F0808087F00417F41002040413F017FA8
:1001E000081422417F404040407F021C027F7F0470
:1001F00008107F3E4141413E7F090909063E4151B9
:10020000215E7F09192946264949493203017F01A8
:10021000033F4040403F1F2040201F3F4038403FA9
:10022000631408146303047804036159494D4300BF
:100230007F4141410204081020004141417F0402F6
:10024000010204404040404000030708002054548D
:1002500078407F284444383844444428384444286B
:100260007F385454541800087E090218A4A49C78BE
:100270007F0804047800447D40002040403D007F1A
:100280001028440000417F40007C047804787C08FA
:100290000404783844444438FC18242418182424CE
:1002A00018FC7C08040408485454542404043F44B3
:1002B000243C4040207C1C2040201C3C4030403CE2
:1002C00044281028444C9090907C4464544C440042
:1002D00008364100000077000000413608000201A6
:1002E0000204023C2623263C1EA1A161123A404092
:1002F000207A38545455592155557941225454780F
:1003000042215554784020545579400C1E527212A7
:100310003955555559395454545939555454580030
:1003200000457C410002457D420001457C407D1234
:1003300011127DF0282528F07C5455450020545496
:100340007C547C0A097F4932494949323A44444441
:100350003A324A4848303A4141217A3A424020787C
:10036000009DA0A07D3D4242423D3D4040403D3C7D
:1003700024FF2424487E4943662B2FFC2F2BFF09A2
:1003800029F620C0887E0903205454794100004496
:100390007D413048484A32384040227A007A0A0A81
:1003A000727D0D19317D2629292F282629292926F4
:1003B00030484D4020380808080808080808382F39
:1003C00010C8ACBA2F102834FA00007B00000814C3
:1003D0002A142222142A14085500550055AA55AA99
:1003E00055AAFF55FF55FF000000FF00101010FF39
:1003F00000141414FF001010FF00FF1010F010F094
:10040000141414FC001414F700FF0000FF00FF1484
:1004100014F404FC141417101F10101F101F1414D0
:10042000141F00101010F0000000001F101010101A
:100430001F10101010F010000000FF10101010100E
:1004400010101010FF10000000FF140000FF00FF4C
:1004500000001F10170000FC04F4141417101714E8
:1004600014F404F40000FF00F7141414141414140A
:10047000F700F7141414171410101F101F1414147D
:10048000F4141010F010F000001F101F0000001FE7
:1004900014000000FC140000F010F01010FF10FF1A
:1004A000141414FF141010101F00000000F010FFAF
:1004B000FFFFFFFFF0F0F0F0F0FFFFFF0000000093
:1004C00000FFFF0F0F0F0F0F3844443844FC4A4A17
:1004D0004A347E02020606027E027E0263554941CC
:1004E000633844443C04407E201E2006027E020203
:1004F00099A5E7A5991C2A492A1C4C7201724C3017
:100500004A4D4D303048784830BC625A463D3E49ED
:100510004949007E0101017E2A2A2A2A2A44445F91
:10052000444440514A444040444A51400000FF0185
:1005300003E080FF000008086B6B08361236243693
:10054000060F090F060000181800000010100030F8
:1005500040FF0101001F01011E00191D1712003C80
:100560003C3C3C0000000000000103070F1F3F7FE0
:100570000080C0E0F0F8FCFEDB40A4A62EAF200017
:10058000A1C8D300408DAED580A800006000000057
:100590000000000000000000000000E0000000007B
:1005A00000000000000000000001E000000000006A
:1005B000000000000000000001F00000000000004A
:1005C0000000000000000003F00000000000000038
:1005D00000000000000007F0000000000000000024
:1005E000000000000007F80000000000000000000C
:1005F000000000000FF800000003C0007E000001B2
:10060000E0007F0FF800000003C000FE000001E0E2
:1006100000FFEFF800000003C000FE000001E00052
:10062000FFFFF800000003C000F00000000F007F93
:10063000FE7FC0000003C000F00000000F003FFE7E
:100640007FF83FF1FBCFFCFEF3BC3DEFE01FFE7FE8
:10065000FF7FFBFFDFFEFEFFBC3DEFE01FC6FFFF9D
:100660007FFBFFDFFEFEFFBC3DEFE00FE3C7FE7840
:100670007BC3DE1EF0FFBC3DEF0007FF87FC787BED
:10068000C3DE1EF0F83C3DEF0001FFFFF0007BC32E
:10069000C01EF0F03C3DEF0001F37FE03FFBC3CF15
:1006A000FEF0F03C3DEF0003E33F807FFBC3DFFE45
:1006B000F0F03C3DEF0007E73C00787BC3DE1EF026
:1006C000F03C3DEF0007FFBE00787BC3DE1EF0F07C
:1006D0003C3DEF0007FFFE00787BC3DE1EF0F03CE0
:1006E0003DEF000FFFFE007FFBFFDFFEF0F03FFD60
:1006F000EFE00FFFFF007FFBFFDFFEF0F03FFDEFBD
:10070000E00FF9FF003E79F9CF9EF0F01F3DE7E0E2
:100710001FF1FF0000000000000000000000001FAB
:1007200080FF007FFFFFFFFFFFFFFFFFFFE01C00D8
:100730007F007FFFFFFFFEB46D888D18E000001F73
:10074000007FFFFFFFFE95AD7DB577E000000F0055
:100750007FFFFFFFFEA5AD9D8D19E0000006007F25
:10076000FFFFFFFEB5ADEDB57EE00000000000012B
:100770008000000000000000000003800000000076
:10078000000000000007C0000000000000000000A2
:1007900007C00000000000000000000FC0000000C3
:1007A0000000000000001FE000000000000000004A
:1007B000001FE00000000000000000003FE000001B
:1007C000000000000000003FF000000000000000FA
:1007D00000007FF0000000000000001FF87FF00024
:1007E0000000000000003FFE7FF00000000000005D
:1007F000003FFF7FF0000000000000001FFFFBE053
:10080000000000000000000FFFF9FFC00000000022
:1008100000000FFFF9FFF800000000000007FFF1E3
:10082000FFFF00000000000003FC73FFFF800000DA
:1008300000000001FE3FFFFF80000000000000FFFD
:100840001E0FFF000000000000007FFE1FFC0000E4
:1008500000000000003FFFFFF80000000000000063
:100860000FDFFFE0000000000000001F19FFC000C4
:100870000000000000003F3CFF00000000000000FE
:10088000007E7CF800000000000000007FFE7C007D
:1008900000000000000000FFFFFC0000000000005E
:1008A0000000FFFFFE0000000000000000FFFFFE50
:1008B0000000000000000001FFEFFE00000000004B
:1008C000000001FFCFFE0000000000000003FF0752
:1008D000FE0000000000000003FC07FE0000000016
:1008E00000000003F003FE00000000000000018093
:1008F00000FE000000000000000000007E0000007C
:10090000000000000000003E0000000000000000A9
:1009100000000C000000000000078000FC00000345
:10092000C0000000078001FC000003C000000007B9
:100930008001FC000003C0000000078001E000000F
:10094000001E000000078001E00000001E007FE3A1
:10095000F79FF9FDE7787BDFC0FFF7FFBFFDFDFFE5
:10096000787BDFC0FFF7FFBFFDFDFF787BDFC0F0C6
:10097000F787BC3DE1FF787BDE00F0F787BC3DE107
:10098000F0787BDE0000F787803DE1E0787BDE00D9
:100990007FF7879FFDE1E0787BDE00FFF787BFFDF3
:1009A000E1E0787BDE00F0F787BC3DE1E0787BDEBC
:1009B00000F0F787BC3DE1E0787BDE00F0F787BC14
:1009C0003DE1E0787BDE00FFF7FFBFFDE1E07FFB6C
:1009D000DFC0FFF7FFBFFDE1E07FFBDFC07CF3F38B
:1009E0009F3DE1E03E7BCFC0000000000000000022
:1009F000000000FFFFFFFFFFFFFFFFFFFFC0FFFF43
:100A0000FFFFFD68DB111A31C0FFFFFFFFFD2B5A0E
:100A1000FB6AEFC0FFFFFFFFFD4B5B3B1A33C0FFDC
:100A2000FFFFFFFD6B5BDB6AFDC043696B69730011
:100A30004261736C61740053534431333036206526
:100A40006B72616EC4B1206261C59F6C6174C4B188
:100A50006C616D6164C4B12100534B4F52205055FD
:100A6000414E4920202020004F79756E2042697444
:100A7000746921004B415942455454494E495A2109
:100A80000054454252494B4C45522100424F4C556F
:100A90004D203500424F4C554D203400424F4C55AF
:100AA0004D203300424F4C554D2032004F79756E2A
:100AB000756D757A6120676F7374657264696769B3
:100AC0006E697A20696C6769206963696E20746554
:100AD00073656B6B75726C657200424F4C554D209F
:100AE000310043696B69730043696B69730042614C
:100AF000736C6174004261736C61740000000000EB
:100B0000240027002A0000000000250028002B00F8
:100B1000000000002300260029000404040404044B
:100B2000040402020202020203030303030301029C
:100B3000040810204080010204081020010204086B
:100B4000102000000008000201000003040700005C
:100B50000000000000002200FF2100008319C624CD
:100B600011241FBECFEFD8E0DEBFCDBF11E0A0E063
:100B7000B1E0EEE9FEE402C005900D92A238B107A3
:100B8000D9F723E0A2E8B1E001C01D92A03BB20773
:100B9000E1F715E0CFEAD5E004C02197FE010E94FD
:100BA0000B26CE3AD107C9F70E94101A0C9442279F
:100BB0000C9400000895833081F028F4813099F07E
:100BC0008230A9F008958730A9F08830C9F08430C8
:100BD000B1F4809180008F7D03C0809180008F7779
:100BE00080938000089584B58F7784BD089584B57F
:100BF0008F7DFBCF8091B0008F778093B0000895F8
:100C00008091B0008F7DF9CFCF93DF93282F30E014
:100C1000F901EE5BF44F8491F901E25DF44FD49158
:100C2000F901E65EF44FC491CC23A1F081110E943A
:100C3000DB05EC2FF0E0EE0FFF1FE05FF44FA59116
:100C4000B491EC91ED2381E090E009F480E0DF9134
:100C5000CF91089580E090E0FACF1F93CF93DF9378
:100C6000282F30E0F901EE5BF44F8491F901E25D49
:100C7000F44FD491F901E65EF44FC491CC23A9F06E
:100C8000162F81110E94DB05EC2FF0E0EE0FFF1F05
:100C9000EA5FF44FA591B4918FB7F894EC911111DC
:100CA00008C0D095DE23DC938FBFDF91CF911F91D9
:100CB0000895DE2BF8CFCF93DF9390E0FC01E25D47
:100CC000F44F2491865E944FFC0184918823C9F0EF
:100CD00090E0880F991FFC01E450F54FA591B49165
:100CE000FC01EA5FF44FC591D49161110DC09FB72B
:100CF000F8948C91209582238C93888128232883D3
:100D00009FBFDF91CF910895623051F49FB7F8945F
:100D10003C91822F809583238C93E8812E2BEFCFFB
:100D20008FB7F894EC912E2B2C938FBFEACF8E5077
:100D3000806480937C0080917A00806480937A0044
:100D400080917A0086FDFCCF8091780090917900A7
:100D500008953FB7F8948091B7029091B802A0919E
:100D6000B902B091BA0226B5A89B05C02F3F19F071
:100D70000196A11DB11D3FBFBA2FA92F982F88271B
:100D8000BC01CD01620F711D811D911D42E0660FF6
:100D9000771F881F991F4A95D1F708958F929F92C8
:100DA000AF92BF92CF92DF92EF92FF926B017C01E4
:100DB0000E94A9064B015C01C114D104E104F104B5
:100DC000B9F00E94A906681979098A099B09683E49
:100DD00073408105910580F321E0C21AD108E10832
:100DE000F10888EE880E83E0981EA11CB11CE4CFA8
:100DF000FF90EF90DF90CF90BF90AF909F908F903B
:100E0000089508950895EF92FF920F931F93CF9343
:100E1000DF938C017B01D0E0C0E0F701EC0FFD1FF8
:100E20006491662361F0D801ED91FC910190F0810D
:100E3000E02DC8010995892B11F02196EECFCE0146
:100E4000DF91CF911F910F91FF90EF900895AF9296
:100E5000BF92CF92DF92EF92FF920F931F93CF93A7
:100E6000DF936C017B018B01040F151FEB015E0109
:100E7000AE18BF08C017D10759F06991D601ED919E
:100E8000FC910190F081E02DC6010995892B79F73D
:100E9000C501DF91CF911F910F91FF90EF90DF90EF
:100EA000CF90BF90AF900895FC01538D448D252FB6
:100EB00030E0842F90E0821B930B541710F0CF96F4
:100EC000089501970895FC01918D828D981761F026
:100ED000A28DAE0FBF2FB11D5D968C91928D9F5F3D
:100EE0009F73928F90E008958FEF9FEF0895FC011C
:100EF000918D828D981731F0828DE80FF11D858DCF
:100F000090E008958FEF9FEF0895FC01918D228D61
:100F1000892F90E0805C9F4F821B91098F739927E6
:100F200008958FEB92E00E94850721E0892B09F458
:100F300020E0822F089580E090E0892B29F00E9424
:100F4000910781110C9400000895FC01A48DA80F55
:100F5000B92FB11DA35ABF4F2C91848D90E00196FB
:100F60008F739927848FA689B7892C93A089B1891B
:100F70008C91837080648C93938D848D981306C0BC
:100F80000288F389E02D80818F7D80830895EF9220
:100F9000FF920F931F93CF93DF93EC0181E0888F33
:100FA0009B8D8C8D98131AC0E889F989808185FF03
:100FB00015C09FB7F894EE89FF896083E889F989A5
:100FC00080818370806480839FBF81E090E0DF91A7
:100FD000CF911F910F91FF90EF900895F62E0B8DFA
:100FE00010E00F5F1F4F0F731127E02E8C8D8E11B5
:100FF0000CC00FB607FCFACFE889F989808185FF1C
:10100000F5CFCE010E94A507F1CFEB8DEC0FFD2FA0
:10101000F11DE35AFF4FF0829FB7F8940B8FEA89D6
:10102000FB8980818062CFCFCF93DF93EC01888DE5
:101030008823B9F0AA89BB89E889F9898C9185FD53
:1010400003C0808186FD0DC00FB607FCF7CF8C91E1
:1010500085FFF2CF808185FFEDCFCE010E94A507ED
:10106000E9CFDF91CF910895EF92FF920F931F93F5
:10107000CF93DF93EC01EC80FD806E157F050CF0C3
:1010800070C057FF04C0240F351F50E040E08E8130
:101090009F81FA01E20FF31F8E179F071CF49C013A
:1010A000241B350B121613060CF05BC0922F842FF5
:1010B0008695869586958E9DD0018F9DB00D1124C5
:1010C0006A0F7B1FAF8DB8A1A60FB71F477049F1FC
:1010D00088E0841B482F682F70E0FB01E059FA4F2D
:1010E000E491281708F063C0621B71092FEF30E00C
:1010F00002C0359527956A95E2F7E2230130110584
:1011000039F0B0F10230110561F58C91E82702C089
:101110008C91E82BEC93941720F12C813D81A20F48
:10112000B31FE92FE41BE83078F00230110521F5F8
:101130008E2F9C9190959C932C813D81A20FB31F83
:1011400088508830B0F7E770EE2359F0F0E0E859A6
:10115000FA4FE49101301105F9F010F10230110558
:1011600019F1DF91CF911F910F91FF90EF900895AA
:10117000E0958C91E823CECF81E00115110509F4AB
:1011800080E081959E2F8C932C813D81A20FB31F0F
:1011900098509830C0F7D7CF8C91E82BEC93E1CFE3
:1011A000E0958C91E823FACF8C91E827F7CF0130B6
:1011B000110509F4ADCFE0F20230110509F4A5CF15
:1011C000AE0DBF1DAECF0F931F93CF93DF9377FF6D
:1011D00004C0260F371F70E060E0DC011496CD914B
:1011E000DC91FB01E20FF31FCE17DF071CF49E0119
:1011F000261B370B121613064CF5FA0157FD3796CE
:10120000A3E0F595E795AA95E1F7EC9FD001ED9F56
:10121000B00DFC9FB00D11246A0F7B1FDC015F969F
:10122000ED91FC91E60FF71F4770552781E090E0A4
:1012300001C0880F4A95EAF7482F0130110559F08F
:10124000A8F02E0F3F1F02301105E1F0DF91CF9182
:101250001F910F9108952E0F3F1FE217F307B1F36F
:101260008191DF011197842B8C93F7CF80952E0FFE
:101270003F1FE217F30751F39191DF011197982374
:101280009C93F7CFE217F30709F38191DF011197E0
:1012900084278C93F7CF0F931F93FA01DC015696A6
:1012A0004C9156974230E9F04330A1F1413061F55D
:1012B00014964D915C91DA01AE1BBF0BFD01E21B50
:1012C000F30B77FD0BC0DC0116964D915C91641712
:1012D000750724F4AB01BF010E94E3081F910F9131
:1012E000089514964D915C91DA01A61BB70BBD01D0
:1012F00061507109DC0116964D915C91DA01AE1BCB
:10130000BF0BFD01E21BF30B77FDE8CFAF010E949D
:101310003408E4CF16964D915C91DA01A61BB70B09
:10132000BD0161507109CDCF0F931F93FA01DC010C
:1013300056964C9156974230A9F0433091F1413086
:1013400019F514964D915C91DA01AE1BBF0BFD01AE
:101350003197F7FD04C0AB01BF010E9434081F9113
:101360000F91089514964D915C91DA01A61BB70B6D
:10137000BD01DC0116964D915C91DA01AE1BBF0BED
:10138000FD013197621B730BF7FDE9CFDC01169667
:101390004D915C91E417F50714F7AF010E94E30843
:1013A000DECF16964D915C91DA01A61BB70BBD01FD
:1013B000621B730BCECFFC0177FD64C080859185E5
:1013C000681779070CF05EC057FD5CC08285938575
:1013D000481759070CF056C086898230B1F0833027
:1013E00029F1813041F484819581841B950BAB01F7
:1013F000BC01615071092130310509F108F443C085
:101400002230310509F463C0089584819581DC019F
:10141000A61BB70BBD016150710986819781DC0164
:10142000A41BB50BAD0141505109E5CF86819781D1
:10143000861B970BBA01AC0141505109DCCFCA01A0
:1014400057FD0796A3E095958795AA95E1F7A481A6
:10145000B5818A9F90018B9F300D9A9F300D11248A
:10146000620F731F078CF0A1E02DE60FF71F477086
:10147000552721E030E001C0220F4A95EAF780812C
:10148000822B80830895CA0157FD079633E0959516
:1014900087953A95E1F7A481B5818A9F90018B9F4A
:1014A000300D9A9F300D1124620F731F078CF0A12D
:1014B000E02DE60FF71F4770552781E090E001C04F
:1014C000880F4A95EAF7809590818923DACFCA017F
:1014D00057FD079623E0959587952A95E1F7A48116
:1014E000B5818A9F90018B9F300D9A9F300D1124FA
:1014F000620F731F078CF0A1E02DE60FF71F4770F6
:10150000552721E030E001C0220F4A95EAF780819B
:101510008227B7CF08958EBD00000DB407FEFDCF22
:101520008EB508958CBD9DBD08950895FC0163702E
:10153000668B8481958126813781613039F06330F3
:1015400029F0918780873387228708953187208704
:101550009387828708952F923F924F925F926F9266
:101560007F928F929F92AF92BF92CF92DF92EF9233
:10157000FF920F931F93CF93DF93CDB7DEB76A9798
:101580000FB6F894DEBF0FBECDBF9A8F898F7A83D6
:1015900069834A01D22E18870F833701BC2CDC01E6
:1015A00059962D913C915A972115310509F015C195
:1015B00018968D919C911997681779070CF0D7C1EF
:1015C0001A968D919C91481759070CF0D0C14C2C5C
:1015D000512CB6E0CB9E600D711D11247C876B876A
:1015E000161617060CF0C3C1EA2DF0E0FA87E9875A
:1015F00093E0EE0FFF1F9A95E1F7F88BEF87CF018D
:10160000840F951F181619060CF0B1C1A98DBA8D5B
:1016100058968C91811104C0BFEABD1508F4D3948B
:10162000A98DBA8DED91FC9111970284F385E02D7F
:10163000CD010995B5E0DB9EC0011124E981FA8155
:10164000FC83EB83312C212C9C0128593F4F388F90
:101650002F8B4A2D50E05E8B4D8BEF89F88DE20D7C
:10166000F31D44919E828D82D12CC12C69817A8197
:10167000620D731D7A8B698B842F90E09C8B8B8B12
:10168000E98DFA8DA081B18140FF82C0F1E0BF12E7
:101690006FC0AF126DC01C96ED91FC912F81388503
:1016A000A4014C0D5D1D69897A89898D9A8D0995F2
:1016B000EB89FC89F595E7954E2F5FEFC51AD50AA2
:1016C0006D817E818D899E89680F791F7E836D83F0
:1016D00098E0C916D10481F6AFEF2A1A3A0AEB81D5
:1016E000FC81E40DF51DFC83EB83F5E02F1631043E
:1016F00009F0B3CF2F81388526153705B9F0A98DAC
:10170000BA8DED91FC91B1E0BB1257C0AB1255C040
:1017100069817A816B5F7F4F0088F189E02D8301B9
:1017200028E030E0A401898D9A8D0995A98DBA8DA4
:10173000ED91FC9111970688F789E02DCD016A960D
:101740000FB6F894DEBF0FBECDBFDF91CF911F91D2
:101750000F91FF90EF90DF90CF90BF90AF909F9050
:101760008F907F906F905F904F903F902F90099453
:101770001E96ED91FC91EF80F88409851A859201FF
:101780004D815E816B817C81898D9A8D099590CF89
:101790002F8138852615370509F48ACF31E0B31239
:1017A00007C0A31205C01C96ED91FC91930178CF60
:1017B0001E96ED91FC917301E0CF6B857C856419D9
:1017C00075090684F785E02D73010F85188992014C
:1017D000A401898D9A8D0995A9CFF9013496949128
:1017E000329745915491D91AB7E0DB9E400D511DB7
:1017F0001124F901259134913C8B2B8BFA01259012
:101800003490FA013296749031963491398B329635
:1018100064903196449041E04C1518F04A1508F058
:101820007FC0662D062C000C770B7C836B83842D88
:10183000042C000C990B9E838D83A98DBA8DED919C
:10184000FC9111970284F385E02DCD010995512C6F
:10185000D12CC12CEA2DF0E0FA87E9872B2D30E05E
:101860003C872B87A401440D511D47FC5A95588F86
:101870004F8B69817A81660D711D67FC7A957E8731
:101880006D877989C71608F051CF2C2D30E04D8136
:101890005E81420F531FA985BA854A9FC0014B9FA5
:1018A000900D5A9F900D1124FC01E80DF91DF88B45
:1018B000EF87852D612C4F89588D420F531F5E8B0A
:1018C0004D8B671408F050C044244394480E877031
:1018D00041F4C1010196EB89FC89E20DF31DD4901E
:1018E0001C01D7FE19C0A98DBA8DED91FC91662D12
:1018F00070E0B1E0BB1219C0AB1217C02D853E8558
:10190000620F731F0484F585E02D2F8138854D8982
:101910005E89898D9A8D0995DD0C6394842DD1CFD4
:101920001E821D821C821B8288CF4B815C81640FCA
:10193000751FAB85BC856A9FC0016B9F900D7A9F18
:10194000900D112469817A81680F791F0684F785CB
:10195000E02DEF80F88409851A859D014F8558890F
:10196000898D9A8D0995D8CF570CC3948ACF6A96E2
:101970000FB6F894DEBF0FBECDBFDF91CF911F91A0
:101980000F91FF90EF90DF90CF90BF90AF909F901E
:101990008F907F906F905F904F903F902F90089521
:1019A0008F929F92AF92CF92EF92FF920F931F93DD
:1019B000CF93DF93EC01262F898D9A8D009709F044
:1019C00051C06A30D1F41D861C868D8948E0849F01
:1019D000900111248E859F85820F931F9F878E878C
:1019E00081E090E0DF91CF911F910F91FF90EF90F8
:1019F000CF90AF909F908F9008956D3089F3CC88F1
:101A0000AD888F898823C1F08C859D8536E0C39E83
:101A1000800D911D1124488559854817590764F494
:101A20004E855F851D861C8638E0A39EC00111246B
:101A3000840F951F9F878E87EA88FB8808891989FC
:101A40004E855F856C857D85CE010E94AB0A2C8911
:101A50008C859D8546E0249F800D911D11249D87D6
:101A60008C87BECF6A3069F41D861C86FC013896CF
:101A7000E4912D898E859F85E29F800D911D112413
:101A8000ADCF6D3009F4ACCFFC01349634916317BF
:101A900008F4A6CF3296E491E61708F4A1CFFC0132
:101AA000329685909490462F431B342F47E0349F05
:101AB000800C911C1124F401329634913196E491FA
:101AC0003323A9F1EE2399F1CC88F4013596E49102
:101AD000AD884F89442301F10E2E000CFF0BE30F5C
:101AE000F11DCE9EA001CF9E500D11246C857D85E9
:101AF000460F571F68857985641775076CF44E8506
:101B00005F851D861C86FC013896E491AE9E400DD3
:101B1000511D11245F874E87EA88FB88088919893F
:101B20004E855F856C857D85CE010E94AB0AF401F0
:101B30003496E4912C898C859D85E29F800D911DC2
:101B400011248DCF6F927F928F929F92AF92BF920E
:101B5000CF92DF92EF92FF920F931F93CF93DF9379
:101B6000EC016B015A0139014801E881F9810284D5
:101B7000F385E02D0995E881F9810288F389E02D4C
:101B800087019301A501B601CE010995A501480D74
:101B9000591D41505109E881F9810288F389E02DEE
:101BA0009301B601CE010995E881F9810088F18998
:101BB000E02D9401A501B601CE010995C60CD71CF4
:101BC000B60161507109E881F9810088F189E02D41
:101BD0009401A501CE010995E881F9810688F7896C
:101BE000E02DCE01DF91CF911F910F91FF90EF90EB
:101BF000DF90CF90BF90AF909F908F907F906F902D
:101C000009946F927F928F929F92AF92BF92CF92E0
:101C1000DF92EF92FF920F931F93CF93DF935C01BC
:101C2000EB016A01490138018701DC01ED91FC916A
:101C30006217730719F5641675062CF0962D872D1B
:101C40003A01C92ED82E9601261937092F5F3F4F2A
:101C5000048CF58DE02DA301BE01C5010995DF912E
:101C6000CF911F910F91FF90EF90DF90CF90BF9099
:101C7000AF909F908F907F906F9008954615570575
:101C800091F42617370724F0892D4B01C22FD82F46
:101C90009E01281939092F5F3F4F068CF78DE02DE3
:101CA000A601B401DACF0284F385E02D0995D501B0
:101CB000ED91FC910488F589E02D83019401A60142
:101CC000BE01C5010995D501ED91FC910688F78902
:101CD000E02DC501DF91CF911F910F91FF90EF9003
:101CE000DF90CF90BF90AF909F908F907F906F903C
:101CF0000994EF92FF920F931F93DC011A960D91B6
:101D00001C911B9718962D913C911997ED91FC9180
:101D100000A0F1A1E02D7B0150E040E070E060E028
:101D200009951F910F91FF90EF9008954F925F9248
:101D30006F927F928F929F92AF92BF92CF92DF92DB
:101D4000EF92FF920F931F93CF93DF936C012B01C0
:101D50005A0139014801DC01ED91FC910284F385BF
:101D6000E02D0995E201640C751CD601ED91FC9102
:101D7000C615D7055CF40088F189E02D8701940130
:101D8000A501BE01C60109952196EFCF0688F78906
:101D9000E02DC601DF91CF911F910F91FF90EF9041
:101DA000DF90CF90BF90AF909F908F907F906F907B
:101DB0005F904F9009948F929F92AF92BF92CF9273
:101DC000DF92EF92FF920F931F93CF93DF93EC017B
:101DD0005B014A016901E881F9810284F385E02D04
:101DE000099595012C0D3D1D21503109E881F9819E
:101DF0000488F589E02D78018401A401B501CE01A4
:101E00000995E881F9810688F789E02DCE01DF91F7
:101E1000CF911F910F91FF90EF90DF90CF90BF90E7
:101E2000AF909F908F9009948F929F92AF92BF92A4
:101E3000CF92DF92EF92FF920F931F93CF93DF9396
:101E4000EC015B014A0169017801E881F9810284B2
:101E5000F385E02D0995C80CD91C860101501109A4
:101E6000E881F9810488F589E02D9501A401B50187
:101E7000CE010995E881F9810688F789E02DCE0128
:101E8000DF91CF911F910F91FF90EF90DF90CF9056
:101E9000BF90AF909F908F900994EF92FF920F9315
:101EA0001F93DC01ED91FC9100A0F1A1E02D0995BB
:101EB0001F910F91FF90EF9008950F931F93DC01F6
:101EC000ED91FC91068CF78DE02D09951F910F91F6
:101ED00008950F931F93DC01ED91FC91048CF58D17
:101EE000E02D09951F910F9108952F923F924F92E7
:101EF0005F926F927F928F929F92AF92BF92CF929A
:101F0000DF92EF92FF920F931F93CF93DF9300D056
:101F100000D000D0CDB7DEB76C017C836B835A0153
:101F20009A01220F331F2F5F3F4FAB014A195B0904
:101F300001E010E0BC018CE693E00E94690F81E0B3
:101F400090E07C01EA18FB08882799278A199B09E9
:101F50009C01220F331F3A832983250122242394D5
:101F6000312C90E080E03FEFE316F30609F488C0DF
:101F70009501215031093E832D8329813A812E5FBD
:101F80003F4F3A832983E20EF31E3C013FEF631A71
:101F9000730A82E0280E311CE20CF31C2D813E8175
:101FA000261537050CF46FC04901880C991C3FEFCA
:101FB000831A930A01E010E09401AB80BC808D810C
:101FC0009E81A81AB90AA501B601660D771D8CE697
:101FD00093E00E94690F9401A501B6016619770983
:101FE0008CE693E00E94690F2D813E812415350512
:101FF00019F1AA24A394B12CA618B7088B819C814F
:10200000A80EB91EB601640D751D01E010E0410176
:1020100092E0891A91089401A5018CE693E00E9450
:10202000690FB601641975099401A5018CE693E066
:102030000E94690F4D805E8081E090E022E0A22E38
:10204000B12C2D813E81621673060CF48CCF26963E
:102050000FB6F894DEBF0FBECDBFDF91CF911F91B9
:102060000F91FF90EF90DF90CF90BF90AF909F9037
:102070008F907F906F905F904F903F902F9008953A
:10208000BE82AD8282CF2D813E812415350509F0B7
:10209000B0CFDDCFDC01ED91FC910084F185E02D26
:1020A00009943F924F925F926F927F928F929F928C
:1020B000AF92BF92CF92DF92EF92FF920F931F9356
:1020C000CF93DF935C017B014A016901390187E00D
:1020D000680E711C93E0759467949A95E1F72B0153
:1020E000400E511E10E000E0312CD0E0C0E0CE01E7
:1020F00087709927330C892B59F4FE0183E0F595FD
:10210000E7958A95E1F7E00FF11FE80DF91D34908E
:1021100037FE0AC021E030E0A701B5016C0F7D1F3A
:102120008CE693E00E944A102196CC16DD06F9F663
:102130008FEFE81AF80A060D171DE414F504A9F646
:10214000DF91CF911F910F91FF90EF90DF90CF9093
:10215000BF90AF909F908F907F906F905F904F90C7
:102160003F9008952F923F924F925F926F927F928D
:102170008F929F92AF92BF92CF92DF92EF92FF9297
:102180000F931F93CF93DF9300D000D000D0CDB733
:10219000DEB73C016A013E832D83FC82EB8258014D
:1021A000A41AB50AB7FE03C0B194A194B1088D80FA
:1021B0009E80861A970A97FE03C091948194910895
:1021C0008A149B045CF0902F812F0D811E819D83CA
:1021D0008E839C2D8D2D6B01692F782F0C151D057D
:1021E0005CF09D818E817E836D83692F782F902F87
:1021F000812F8601C92ED82E1601201A310A2B01F3
:102200002D813E81421A530A57FE03C051944194D6
:102210005108710137FE03C03FEFE31AF30AF5944A
:10222000E7948D819E81861797075CF5A1E0B0E069
:10223000BA83A983C016D1064CF1D301ED91FC916C
:102240000484F585E02D2B813C81A8016D817E8180
:102250008A149B041CF04D815E81B801C30109956D
:10226000E418F508F7FE0AC02D813E8189819A8124
:10227000280F391F3E832D83E20CF31C0F5F1F4F85
:10228000D9CF2FEF3FEF3A832983D4CF26960FB6CD
:10229000F894DEBF0FBECDBFDF91CF911F910F919C
:1022A000FF90EF90DF90CF90BF90AF909F908F9076
:1022B0007F906F905F904F903F902F90089508957A
:1022C0002091E801260F3327331F21323105ECF42A
:1022D00020910C02FC0190E080E0243069F082E063
:1022E0000895A091E8012191AC0148535E4FA40FDD
:1022F000B52FB11D2C930196861798F38091E801B4
:10230000680F6093E80180E0089581E008951092DD
:102310000C0281E080930E0210920D0261E082E1D6
:102320000E942D0661E083E10E942D06E9EBF0E0BA
:1023300080818E7F808380818D7F808388E48093FD
:10234000B80085E48093BC000895CF93DF9391E0BB
:102350009093C7018823B9F0C091B800D091BA001A
:102360008091BC008A7B8093BC0060E082E10E9487
:102370002D0660E083E10E942D060E948711D09314
:10238000BA00C093B800DF91CF910895E091380270
:1023900080913702E81730F4F0E0EE55FE4F80816F
:1023A00090E008958FEF9FEF08959091380280910B
:1023B00037022FEF3FEF981748F4E92FF0E0EE5582
:1023C000FE4F208130E09F5F90933802C90108954D
:1023D0008091370290913802891B990B0895CF9212
:1023E000DF92EF92FF920F931F93CF93DF937C01C5
:1023F000CB018A012091BE02222389F0EB016B01FF
:10240000C40ED51ECC15DD0569F06991D701ED919B
:10241000FC910190F081E02DC7010995F3CF642F65
:102420000E946011C801DF91CF911F910F91FF9021
:10243000EF90DF90CF900895CF93DF931F92CDB7A9
:10244000DEB769832091BE022223F9F02091BB02FE
:10245000203258F021E030E0FC013383228390E009
:1024600080E00F90DF91CF9108958091BC02E82F1A
:10247000F0E0EE57FE4F998190838F5F8093BC020E
:102480008093BB0281E090E0ECCF61E0CE01019649
:102490000E946011F7CFCF92DF92EF92FF920F93DD
:1024A0001F93CF93DF93D091BB0281E0D13208F02C
:1024B0009CC0C091BD020E94A9066B017C01809165
:1024C0000C0281116CC082E080930C0281E0809349
:1024D0000E028FEF80930B0210923002D0932F02E6
:1024E000A2E8B1E0EFE0F2E080E0D8138DC01092F6
:1024F000310280913102CC0FC82BC0933102809100
:102500000D02813009F084C010920D020E94A906CC
:102510006B017C01809131028093BB008091C301EB
:102520009091C401A091C501B091C601892B8A2B5D
:102530008B2BA1F00E94A9060091C3011091C40148
:102540002091C5013091C6016C197D098E099F0942
:10255000061717072807390708F442C08091BC0006
:1025600083FDD8CF85EC8093BC000E94A9066B0147
:102570007C0180910C02823009F44CC080910B02E6
:102580008F3F09F469C080910B02803209F466C064
:1025900080910B02803309F463C084E026C08091EF
:1025A000C3019091C401A091C501B091C601892BCE
:1025B0008A2B8B2B09F483CF0E94A9060091C301BB
:1025C0001091C4012091C5013091C6016C197D099B
:1025D0008E099F09061717072807390708F06FCFDC
:1025E0008091C2010E94A51185E01092BC02109258
:1025F000BB021092BE02DF91CF911F910F91FF900D
:10260000EF90DF90CF9008959D9191938F5F6DCF64
:1026100085EEA9CF8091C3019091C401A091C5011D
:10262000B091C601892B8A2B8B2B09F4A2CF0E9473
:10263000A9060091C3011091C4012091C5013091F8
:10264000C6016C197D098E099F090617170728070F
:10265000390708F08ECFC4CF80E0C7CF82E0C5CF66
:1026600083E0C3CFEF92FF920F931F93CF93DF933B
:102670007C01C62F8091890390918A03009709F409
:1026800059C020918D0331E03093BE022093BD02EA
:102690001092BC021092BB02DC01ED91FC91019002
:1026A000F081E02D60E009958701EE24E394F12CA0
:1026B000D1E0C1508091890390918A03CF3F91F17D
:1026C000B0E2EB16F104D8F00E944B12809189031E
:1026D00090918A0320918D03D093BE022093BD0276
:1026E0001092BC021092BB02DC01ED91FC910190B2
:1026F000F081E02D60E00995EE24E394F12C8091C7
:10270000890390918A03F8016491DC01ED91FC91B9
:102710000190F081E02D0995BFEFEB1AFB0A0F5FE6
:102720001F4FC7CFDF91CF911F910F91FF90EF9077
:102730000C944B12E0919903F0919A03908180914F
:102740009F038095892380838701C15008F438C096
:10275000F80184912091870330918803232B29F07D
:102760000E948B0A0F5F1F4FF0CF28E030E040E857
:10277000E0919503F091960390919D03582F542377
:10278000D9F05081952B9083E0919703F0919803B5
:10279000908150919E03952B9083E0919703F09147
:1027A0009803508190919E03909595239083469530
:1027B00021503109E9F6D6CF508190959523E3CF8A
:1027C000DF91CF911F910F91FF90EF9008951F938C
:1027D000CF93DF93EC018D8D9E8D009721F1162F05
:1027E00029A131E03093BE022093BD021092BC02B9
:1027F0001092BB02DC01ED91FC910190F081E02D83
:1028000060E009958D8D9E8DDC01ED91FC9101902C
:10281000F081E02D612F09958D8D9E8DDF91CF91F7
:102820001F910C944B12ADA5BEA59C918BA98095D0
:1028300089238C938B8D9C8D892B31F0862FDF9192
:10284000CF911F910C948B0A28E030E080E8A9A575
:10285000BAA599A9462F4823C1F04C91942B9C937B
:10286000ABA5BCA59C914AA9942B9C93ABA5BCA5F8
:102870004C919AA9909594239C9386952150310967
:1028800031F7DF91CF911F9108954C91909594234A
:10289000E6CFDF92EF92FF920F931F93CF93DF93D8
:1028A0008091890390918A03892B09F498C0209123
:1028B000A1033091A2034091A3035091A40360E0CF
:1028C00074E284EF90E00E94AB2520513109410968
:1028D000510956954795379527952093B80065E09F
:1028E00086E59BE00E9432136091700361508CE694
:1028F00093E00E94E7132091720330917303C901A2
:10290000079697FD079633E0959587953A95E1F7F9
:102910002091700330917103829F8001839F100D7D
:10292000929F100D1124C0918B03D0918C03809144
:10293000890390918A030C0F1D1F009709F48FC023
:1029400020918D0331E03093BE022093BD0210929E
:10295000BC021092BB02DC01ED91FC910190F08170
:10296000E02D60E40995EE24E394F12CDD24D3946A
:102970008091890390918A030C171D0709F446C0C2
:10298000B0E2EB16F104D8F00E944B12809189035B
:1029900090918A0320918D03D092BE022093BD02B4
:1029A0001092BC021092BB02DC01ED91FC910190EF
:1029B000F081E02D60E40995EE24E394F12C809100
:1029C000890390918A036991DC01ED91FC9101905A
:1029D000F081E02D0995BFEFEB1AFB0AC9CF80917A
:1029E000870390918803892B31F08091AA039091FD
:1029F000AB030E94920AE0919B03F0919C039081AB
:102A00008091A00380958923808369CF0E944B1217
:102A10008091890390918A03892B09F461C02091E8
:102A2000A5033091A6034091A7035091A80360E04D
:102A300074E284EF90E00E94AB25205131094109F6
:102A4000510956954795379527952093B800DF9102
:102A5000CF911F910F91FF90EF90DF900895E0913B
:102A60009903F0919A03808190919F03892B808331
:102A70000C171D0769F28991209187033091880313
:102A8000232B19F00E948B0AF3CF28E030E040E8B6
:102A9000E0919503F091960390919D03582F542354
:102AA000D9F05081952B9083E0919703F091980392
:102AB000908150919E03952B9083E0919703F09124
:102AC0009803508190919E0390959523908346950D
:102AD00021503109E9F6CCCF508190959523E3CF71
:102AE000E0919B03F0919C0380819091A003892B3E
:102AF0008083ADCF1F93CF93DF93EC01162F8D8D85
:102B00009E8D892BB1F12DA93EA94FA958AD60E04A
:102B100074E284EF90E00E94AB2520513109410915
:102B2000510956954795379527952093B80066EA41
:102B3000111167EACE010E94E7138D8D9E8D892BBE
:102B400041F129AD3AAD4BAD5CAD60E074E284EF8C
:102B500090E00E94AB252051310941095109569559
:102B60004795379527952093B800DF91CF911F9116
:102B700008958B8D9C8D892B21F08EAD9FAD0E9489
:102B8000920AEFA5F8A990818CA98095892380836A
:102B9000CECFEFA5F8A980819CA9892B8083E5CFB2
:102BA00090E080E008958091AB029091AC02449651
:102BB0009093AA028093A90288E390E09093A802E0
:102BC0008093A70208950F931F93CF93DF93C2E0E2
:102BD000D0E0880F991FFC01E65EFE4F0081118155
:102BE000CE010297B80102C0759567958A95E2F704
:102BF00061708C2F0E942D062196C930D10581F776
:102C0000DF91CF911F910F91089520917203309120
:102C10007303C901079697FD079623E0959587955D
:102C20002A95E1F72091700330917103829FA001F2
:102C3000839F500D929F500D112470E060E08091B1
:102C40008B0390918C030C943B270E943627FB0149
:102C500001900020E9F73197AF01461B570BDC01CB
:102C6000ED91FC910280F381E02D09948F929F9267
:102C7000AF92BF920F931F93CF93DF93CDB7DEB781
:102C8000A1970FB6F894DEBF0FBECDBF19A2423098
:102C900008F44AE08E010F5D1F4F842E912CB12C59
:102CA000A12CA50194010E94AB25E62FB901CA0110
:102CB000EA3004F5E05DD801EE938D01232B242B3F
:102CC000252B79F790E080E0109729F0BD018CE684
:102CD00093E00E942716A1960FB6F894DEBF0FBEB0
:102CE000CDBFDF91CF911F910F91BF90AF909F907B
:102CF0008F900895E95CDFCFCF92DF92EF92FF9241
:102D0000CF93DF936B017C016DE28CE693E00E9430
:102D1000D00CEC0166277727CB016C197D098E0951
:102D20009F094AE00E9436168C0F9D1FDF91CF91BC
:102D3000FF90EF90DF90CF9008958F929F92AF9287
:102D4000BF92CF92DF92EF92FF920F931F93CF9398
:102D5000DF930E940516EE24E394F12C00E410E0CA
:102D600020E830E050E040E070E060E08CE693E086
:102D70000E94A20D6091AB027091AC0205E010E0E0
:102D800028E230E04BE350E08CE693E00E94960EA0
:102D90006091A7027091A80242E050E08091A902E0
:102DA0009091AA020E94750F29E3A22E22E0B22E72
:102DB000D12CC12C8091080190910901C816D90627
:102DC0000CF04BC080910601909107012091040105
:102DD00030910501820F931F8C9D40018D9D900CB9
:102DE0009C9D900C112482E0880E911CD0E0C0E0E4
:102DF0008091020190910301C817D9073CF5F501B4
:102E0000EC0FFD1F80818823F9F0209100013091A3
:102E10000101009106011091070180910401909138
:102E20000501820F931F8C9FB0018D9F700D9C9F99
:102E3000700D11246E5F7F4FEE24E394F12CA401FA
:102E40008CE693E00E94960E2196D2CF8FEFC81A9F
:102E5000D80A8AE0A80EB11CADCF8091A5028823C4
:102E600061F060919F027091A00241E050E080917A
:102E70009D0290919E020E94750F81E080938003D5
:102E80008093810381E090E090937F0380937E03A1
:102E900090937D0380937C0387E390E09093790384
:102EA000809378038FE290E090937B0380937A0382
:102EB0006091A3027091A402072E000C880B990B5D
:102EC00097FF10C00E947C16DF91CF911F910F9148
:102ED000FF90EF90DF90CF90BF90AF909F908F903A
:102EE0000C9449144AE00E943616EECF0F931F93BC
:102EF000CF93DF93EC010E9403078C016EE771E032
:102F0000CE010E942716800F911FDF91CF911F9154
:102F10000F91089585ED8093BC008091C30190913D
:102F2000C401A091C501B091C6010796A11DB11DB4
:102F300023E0B695A795979587952A95D1F7209187
:102F4000BC0024FD03C010920C0208954091C301FF
:102F50005091C4016091C5017091C601452B462B6B
:102F6000472B69F30097A105B10541F02AE22A95A4
:102F7000F1F700C00197A109B109E1CF8091C20129
:102F80000C94A5111F920F920FB60F9211242F933C
:102F90003F938F939F93AF93BF938091B302909190
:102FA000B402A091B502B091B6023091B20223E012
:102FB000230F2D3758F50196A11DB11D2093B202A4
:102FC0008093B3029093B402A093B502B093B6027B
:102FD0008091B7029091B802A091B902B091BA0263
:102FE0000196A11DB11D8093B7029093B802A093E2
:102FF000B902B093BA02BF91AF919F918F913F9167
:103000002F910F900FBE0F901F90189526E8230F59
:103010000296A11DB11DD2CF1F920F920FB60F9233
:1030200011242F933F934F935F936F937F938F93CD
:103030009F93AF93BF93EF93FF938FEB92E00E9428
:10304000A507FF91EF91BF91AF919F918F917F91D4
:103050006F915F914F913F912F910F900FBE0F9005
:103060001F9018951F920F920FB60F9211242F9355
:103070008F939F93EF93FF93E091CF02F091D00253
:103080008081E091D502F091D60282FD1BC0908133
:103090008091D8028F5F8F732091D902821741F0FF
:1030A000E091D802F0E0E154FD4F958F8093D80273
:1030B000FF91EF919F918F912F910F900FBE0F90E5
:1030C0001F9018958081F4CF1F920F920FB60F9228
:1030D00011242F933F934F935F936F937F938F931D
:1030E0009F93AF93BF93EF93FF938091B900887F35
:1030F000803609F44AC0F0F5883209F4A7C018F503
:10310000803109F49BC0B8F4882309F4F9C08830F1
:1031100009F494C0FF91EF91BF91AF919F918F916E
:103120007F916F915F914F913F912F910F900FBEC3
:103130000F901F901895883109F488C0803251F79C
:1031400080930B0214C0803409F49DC040F4803396
:10315000B9F38833F9F680930B0285ECB0C0803563
:1031600009F485C0883509F496C0883499F60E9420
:103170008A17D0CF883909F48CC038F5883729F000
:1031800050F4883611F0803729F683E080930C02E2
:1031900010920A0257C0883809F47BC0803919F0B0
:1031A000803809F0B7CF80910A02803208F071C0F0
:1031B000E0910A0281E08E0F80930A028091BB00A9
:1031C000F0E0E651FE4F80833DC0803B39F0E0F4F3
:1031D000803A09F479C0883A09F09CCF84E0809362
:1031E0000C021092E9011092E801E0913502F09191
:1031F000360209958091E80181110FC081E080932A
:10320000E8011092C80109C0803C09F4A6CF883CAF
:1032100009F4A3CF883B09F07DCFE091E90181E07B
:103220008E0F8093E901F0E0E853FE4F8081809398
:10323000BB009091E9018091E80129C080913102A1
:103240008093BB0085EC8093BC0064CF90913002EA
:1032500080912F02981758F5E091300281E08E0F8F
:1032600080933002F0E0E15FFD4F8081E9CFE09193
:10327000300281E08E0F809330028091BB00F0E03D
:10328000E15FFD4F80839091300280912F0298176B
:10329000C8F285E8D8CFE091300281E08E0F8093AC
:1032A00030028091BB00F0E0E15FFD4F80838091B0
:1032B0000E0281115CCF81E080930D0284EA80933D
:1032C000BC0010920C0226CF85EC8093BC001092BB
:1032D0000C0280910A02803230F4E0910A02F0E0A0
:1032E000E651FE4F108260910A0270E0E0913302D5
:1032F000F09134028AEE91E0099510920A020ACF09
:1033000010920B0234CFEFEBF2E01382128248EE00
:1033100053E060E070E0448355836683778382E303
:1033200091E09183808385EC90E09587848784EC9D
:1033300090E09787868780EC90E0918B808B81EC82
:1033400090E0938B828B82EC90E0958B848B86EC63
:1033500090E0978B868B118E128E138E148EA0E6C2
:10336000B3E013961C921E92129714964D935D93A0
:103370006D937C93179784E491E011969C938E93C0
:10338000ECE6F3E01382128220E830E035832483F8
:1033900080E490E0978386833187208793878287B4
:1033A000168A158614861786168681E0858B848B8F
:1033B0002FEF3FEF338B228B318B208B878B108E3F
:1033C000128E118E86E591E091838083148E138E88
:1033D000B68FA58F10A2178E8FEF84A385A386A327
:1033E00087A380A780E89AE1A6E0B0E085AB96AB22
:1033F000A7ABB0AF80EA96E8A1E0B0E081AF92AFB2
:10340000A3AFB4AF80E586AF17AE82E090E09093B3
:103410005F0380935E0390935D0380935C03089544
:10342000789484B5826084BD84B5816084BD85B59F
:10343000826085BD85B5816085BD80916E008160AB
:1034400080936E0010928100809181008260809351
:103450008100809181008160809381008091800053
:103460008160809380008091B10084608093B1007E
:103470008091B00081608093B00080917A00846078
:1034800080937A0080917A00826080937A008091A4
:103490007A00816080937A0080917A0080688093BE
:1034A0007A001092C10062E08CE00E945B0662E04C
:1034B0008DE00E945B0662E08FE00E945B0661E0A7
:1034C00089E00E945B0661E08AE00E945B0661E0A1
:1034D0008BE00E945B0660E081E10E945B0660E099
:1034E00080E10E945B06C2E061E08C2F0E945B06D7
:1034F000CF5FC930C9F7E091CF02F091D00282E0EE
:103500008083E091CB02F091CC021082E091CD0259
:10351000F091CE028FEC80831092D702E091D3021B
:10352000F091D40286E08083E091D102F091D20242
:10353000808180618083E091D102F091D20280810C
:1035400088608083E091D102F091D202808180680E
:103550008083E091D102F091D20280818F7D8083BF
:1035600080918B0390918C03892B41F520917203FC
:1035700030917303C901079697FD0796B3E09595BF
:103580008795BA95E1F72091700330917103AC01F2
:10359000429FC001439F900D529F900D11240E94A5
:1035A000112690938C0380938B03892B39F467E366
:1035B0007AE08FEB92E00E947617FFCF0E9405160B
:1035C0002091720330917303809170039091710385
:1035D000B901213231050CF498C36054710977FFA9
:1035E00002C06F5F7F4F759567958255910997FD72
:1035F000019600E410E022E530E04AE657E09595B8
:1036000087950E94511082E080938E0380918903F8
:1036100090918A03892B09F48BC38CE380938D03EB
:1036200010923802109237021092BC021092BB0224
:103630000E94871181E097E09093360280933502D3
:1036400082E097E090933402809333028091940358
:1036500087FD1EC061E00E945B0661E080919403DB
:103660000E942D0661E070E080E090E00E94CE06AE
:1036700060E0809194030E942D066AE070E080E093
:1036800090E00E94CE0661E0809194030E942D0696
:103690008091890390918A03892B09F408C42091B1
:1036A000A1033091A2034091A3035091A40360E0D1
:1036B00074E284EF90E00E94AB252051310941096A
:1036C000510956954795379527952093B80064E0A2
:1036D00086E895E00E9432136091720361508CE697
:1036E00093E00E94E71364E082E895E00E943213C1
:1036F00080918E0360E1813009F064E18CE693E013
:103700000E94E71364E08EE795E00E9432138FE891
:103710008093A90380917003909171038038910583
:1037200009F0DEC380917203909173038034910598
:1037300009F0E6C380918E03813009F0CFC38FE991
:103740008093A903C2E16AED8CE693E00E94E7133F
:103750006C2F8CE693E00E94E71361E88CE693E01F
:103760000E94E7136091A9038CE693E00E94E7139F
:1037700069ED8CE693E00E94E71380918E0362E28C
:10378000813009F061EF8CE693E00E94E71366E078
:1037900088E795E00E9432138091890390918A0313
:1037A000892B09F4B1C32091A5033091A603409160
:1037B000A7035091A80360E074E284EF90E00E94B8
:1037C000AB25205131094109510956954795379547
:1037D00027952093B8000E94051682E0809380030D
:1037E0008093810381E090E090937F0380937E0338
:1037F00090937D0380937C038CE190E09093790318
:10380000809378038EE090E090937B0380937A031B
:1038100060E37AE08CE693E00E94761782E290E023
:10382000909379038093780390937B0380937A033A
:103830006AE27AE08CE693E00E9476170E944914CF
:10384000C4E64C2E512C612C712C8091B102811157
:103850000C943D2480E10E949706EC018CE00E94CC
:103860000406892B39F41092B0021092AF0281E065
:103870008093AE028DE00E940406892B41F481E022
:1038800090E09093B0028093AF028093AE0280915B
:10389000AE02882309F474C061E0C53FD1400CF446
:1038A00060E08CE693E00E947A150E94051682E0A3
:1038B000809380038093810381E090E090937F0365
:1038C00080937E0390937D0380937C03BCE1CB2E99
:1038D000D12CD0927903C0927803CEE0D0E0D0937F
:1038E0007B03C0937A038091AF029091B0026EEE99
:1038F0007AE0892BC9F4EE24E394F12C02E110E084
:103900002AE430E04CE050E06AE170E08CE693E0BD
:103910000E94A20DD0927903C0927803D0937B03CA
:10392000C0937A0365EF7AE08CE693E00E94761705
:103930008091AF029091B002019709F0EFC2EE249E
:10394000E394F12C02E110E02EE330E040E250E09D
:1039500060E270E08CE693E00E94A20D82E290E0CB
:10396000909379038093780390937B0380937A03F9
:1039700068EE7AE08CE693E00E9476170E94491484
:103980008FE00E940406892B21F48091AE02811100
:1039900005C08091AD02882309F465C01092AD0284
:1039A0001092AE02C091AF02D091B002209709F000
:1039B00015C4C0910E01D0910F01C130D10549F558
:1039C0000E94051682E08093800380938103D09348
:1039D0007F03C0937E03D0937D03C0937C0388E173
:1039E00090E090937903809378038EE090E0909339
:1039F0007B0380937A036AED7AE08CE693E00E9481
:103A000076170E94491460ED77E080E090E00E9414
:103A1000CE060E9405160E9449148091AB02909137
:103A2000AC0244969093AA028093A90287E390E0A7
:103A30009093A8028093A70220910E0130910F016C
:103A40002330310509F428C30CF075C2213031054B
:103A500009F4BAC22230310509F4E0C20E949D1671
:103A600081E08093A602D0E0C0E0DD24D394CC2492
:103A7000C394EEEF2E2E33243A948091B1029091AC
:103A8000A602992309F4E1CE8111DFCE8091AD0227
:103A90008111DBCE8EE00E94970628E530E0DC0144
:103AA0000E94F0252FEF33E040E050E00E9479259E
:103AB00037FFBAC31092AC021092AB02CD2B11F4B7
:103AC0000E94D31560910A0170910B01072E000C22
:103AD000880B990B0E94CE0681E10E94040600919A
:103AE0005E0310915F03A090A902B090AA02A00EFD
:103AF000B11EE0905C03F0905D03C091A702D091ED
:103B0000A802CE0DDF1D2091A1023091A2020197E3
:103B100009F05DC4C9010E94E315B092AA02A09207
:103B2000A902D093A802C093A7021C161D060CF48C
:103B30008AC3F194E194F108F0925D03E0925C0392
:103B40002091A9023091AA02C90101978D379105F0
:103B500038F011950195110910935F0300935E03EE
:103B60008091A7029091A802C997CCF08091AB02F6
:103B70009091AC02A9014E5F5F4F481759077CF046
:103B80008896821793075CF080915C0390915D03A7
:103B900091958195910990935D0380935C0379E3FE
:103BA000E72E72E0F72E10E000E08091080190917E
:103BB0000901081719070CF061C380910601909163
:103BC00007012091040130910501820F931F809F0E
:103BD0005001819FB00C909FB00C1124D0E0C0E048
:103BE0008091020190910301C817D9070CF040C3DE
:103BF000F701EC0FFD1F8081882309F484C08091B8
:103C00000001909101012091040130910501280FDC
:103C1000391F2C9F40012D9F900C3C9F900C11242C
:103C20002091A9023091AA02A9014E5F5F4F481569
:103C300059050CF468C0880D991D821793070CF480
:103C400062C02091A7023091A802C90102968A158C
:103C50009B050CF458C080910601909107018A0DD4
:103C60009B1D821793070CF44EC08091A102909186
:103C7000A20201969093A2028093A1022091A30236
:103C80003091A4022F5F3F4F3093A4022093A302F0
:103C9000099721F41092A2021092A1021082809141
:103CA0005C0390915D0391958195910990935D03DB
:103CB00080935C030E942125A30192010E94792533
:103CC0006A30710581059105F4F4809100019091AD
:103CD000010197FD019695958795880E991E909202
:103CE0009E0280929D02809106019091070197FDAE
:103CF0000196959587958A0D9B1D9093A0028093C0
:103D00009F02C092A50221966BCF6052710977FF86
:103D100002C06F5F7F4F759567958357910997FD37
:103D2000019600E210E023E730E04AE855E067CC76
:103D300061E0809192030E945B0661E080919303B1
:103D40000E945B0680919203082E000C990BFC01E7
:103D5000E65EF44FE491F0E0EE0FFF1FEA5FF44FF0
:103D60002591349130939A0320939903FC01E25DED
:103D7000F44FE491E0939F0380919303082E000C8D
:103D8000990BFC01E65EF44FE491F0E0EE0FFF1FAB
:103D9000EA5FF44FA591B491B0939C03A0939B0369
:103DA000FC01E25DF44FE491E093A0038C91E82BD9
:103DB000EC938091870390918803892B09F434C098
:103DC000CFB7F89480913202811127C0E4E2FBE082
:103DD0008491E8E3FBE09491E82FF0E0EE0FFF1F01
:103DE000E450F54FA591B491EC91E92321F461E001
:103DF0008AE00E942D0661E08AE00E945B068CB595
:103E000080618CBD8CB580648CBD61E08DE00E94CA
:103E10005B0661E08BE00E945B06809132028F5F5F
:103E200080933202CFBF12CC61E0809190030E9458
:103E30005B0661E0809191030E945B068091900394
:103E4000082E000C990BFC01E65EF44FE491F0E0C3
:103E5000EE0FFF1FEA5FF44F2591349130939603E4
:103E600020939503FC01E25DF44FE491E0939D0300
:103E700080919103082E000C990BFC01E65EF44F33
:103E8000E491F0E0EE0FFF1FEA5FF44FA591B491CB
:103E9000B0939803A0939703FC01E25DF44FE49183
:103EA000E0939E038C91E095E823EC93CFCB809137
:103EB000870390918803892B31F08091AA03909118
:103EC000AB030E94920AE0919B03F0919C039081C6
:103ED0008091A003809589238083F9CB8FEC30CC2F
:103EE0008036910569F48091720390917303409735
:103EF00039F480918E03813029F480E18093A90305
:103F0000C2E021CC8FEAFACFE0919B03F0919C03B1
:103F100080819091A003892B80835DCC82E290E028
:103F2000909379038093780390937B0380937A0333
:103F300062EE7AE01FCD2430310509F4FAC0253055
:103F4000310509F08BCD40910A0150910B0165E0DC
:103F5000649FC001659F900D112466E070E00E948F
:103F6000DC2570930B0160930A01309309012093C3
:103F700008018CE090E090930301809302018AE0B5
:103F800090E090930101809300013093070120930A
:103F9000060181E090E0909305018093040189E39C
:103FA00092E04BE652E061E030E020E0FC01E20FFD
:103FB000F31F60832F5F3F4F2C303105B9F70A960E
:103FC0004817590789F74ACD309309012093080112
:103FD00086E090E0909303018093020184E190E0F9
:103FE00090930101809300018AE090E09093070193
:103FF0008093060182E090E0909305018093040194
:1040000081E08093390280933A0280933B0280934F
:104010003C0280933D0280933E0220CD40910A01F4
:1040200050910B0165E0649FC001659F900D1124C4
:1040300066E070E00E94DC2570930B0160930A013A
:10404000309309012093080185E090E090930301EB
:104050008093020184E190E090930101809300013C
:104060008AE090E090930701809306013093050168
:104070002093040181E080933A0280933B02809375
:104080003C0280933D0280934402809345028093DA
:10409000460280934702E2CC20910A0130910B0145
:1040A00045E0429FC001439F900D112466E070E0FF
:1040B0000E94DC2570930B0160930A0182E090E07E
:1040C000909309018093080189E090E090930301A7
:1040D000809302018AE090E09093010180930001B7
:1040E00085E090E0909307018093060181E090E0E5
:1040F000909305018093040180933B0280933C02DE
:1041000080933D0280933E0280933F028093400261
:104110008093410280934502809346028093470238
:10412000809348028093490280934A0280934B0215
:1041300095CC20910A0130910B0145E0429FC001CE
:10414000439F900D112466E070E00E94DC2570937F
:104150000B0160930A0185E090E090930901809340
:1041600008012CE030E030930301209302012AE0A3
:1041700030E0309301012093000190930701809378
:10418000060182E090E0909305018093040143E4EE
:1041900052E065E070E025E030E0E1E0F0E0C1E011
:1041A00081E090E0E130F10531F08217930719F0DA
:1041B0008617970721F4DA01A80FB91FCC9301964F
:1041C0008A30910579F73196215031096F5F7F4F21
:1041D000465F5F4F2115310519F740CCC130D1053D
:1041E00009F041CC1092A6020E94051681E080934E
:1041F000800380938103D0937F03C0937E03D09389
:104200007D03C0937C03109279031092780310927F
:104210007B0310927A036CEA7AE08CE693E00E94CA
:1042200076170E9449141FCC293531052CF43093A0
:10423000AC022093AB0242CC88E590E09093AC02B4
:104240008093AB023BCCEE970CF47ACC80910C01BE
:1042500090910D01019790930D0180930C0160E204
:1042600073E080E090E00E94CE060E94D31568CCF7
:104270000F5F1F4F9AE0E90EF11C97CC80E10E947E
:10428000970661E0853F91400CF460E08CE693E096
:104290000E947A150E949D1680910C0190910D014B
:1042A00060E0009729F061E08130910509F0EAC1F2
:1042B00089E00E942D0660E08AE00E942D0660E001
:1042C0008BE00E942D068091A502882399F18091B0
:1042D0009F029091A00201969093A00280939F026A
:1042E0008A3391053CF140919D0250919E022091AC
:1042F000AB023091AC02BA016F5F7F4F6217730758
:10430000A4F0285D3F4F241735077CF020910C0165
:1043100030910D012330310534F42F5F3F4F30933E
:104320000D0120930C011092A5028134910514F027
:104330001092A5020E949D16C0910E01D0910F010E
:10434000C330D10509F44BC20CF0ACC1C130D1056A
:1043500009F4E3C1229709F41CC2C1E0D0E08091C6
:104360000C0190910D01892B09F087CB0E94051655
:1043700082E08093800380938103D0937F03C09376
:104380007E03D0937D03C0937C0310927903109237
:1043900078038EE090E090937B0380937A0364E748
:1043A0007AE08CE693E00E9476170E94491460ED53
:1043B00077E080E090E00E94CE0621E02093B102F9
:1043C000D0930F01C0930E011092AD0252CBB09268
:1043D000AA02A092A902D093A802C093A702C90181
:1043E0000E94E3151C161D060CF404C1F194E1941F
:1043F000F108F0925D03E0925C038091A902909134
:10440000AA0201978D37910538F011950195110990
:1044100010935F0300935E0380E10E94970661E0C2
:10442000853F91400CF460E08CE693E00E947A15A1
:104430008091A7029091A802C99734F18091AB02B4
:104440009091AC022091A9023091AA02A9014E5F7D
:104450005F4F48175907C4F0AC01485D5F4F4217E2
:10446000530794F040525109241735070CF0D7C078
:104470008DEF9FEF90935F0380935E034FEF5FEFAD
:1044800050935D0340935C0349E3E42E42E0F42E35
:1044900010E000E0809108019091090108171907C8
:1044A0000CF0FACE80910601909107012091040151
:1044B00030910501820F931F809F5001819FB00CA6
:1044C000909FB00C1124D0E0C0E080910201909147
:1044D0000301C817D9070CF0CFC0F701EC0FFD1F7F
:1044E0008081882309F484C08091000190910101AA
:1044F0002091040130910501280F391F2C9F4001A4
:104500002D9F900C3C9F900C11242091A90230917A
:10451000AA02A9014E5F5F4F481559050CF468C007
:10452000880D991D821793070CF462C02091A70291
:104530003091A802C90102968A159B050CF458C057
:1045400080910601909107018A0D9B1D82179307A8
:104550000CF44EC08091A1029091A202019690931A
:10456000A2028093A1022091A3023091A4022F5FA6
:104570003F4F3093A4022093A302099721F4109295
:10458000A2021092A102108280915C0390915D03BF
:1045900091958195910990935D0380935C030E94AE
:1045A0002125A30192010E9479256A3071058105B8
:1045B0009105F4F4809100019091010197FD01961D
:1045C00095958795880E991E90929E0280929D02E5
:1045D000809106019091070197FD01969595879529
:1045E0008A0D9B1D9093A00280939F02C092A5020A
:1045F00021966BCFEE970CF400CF80910C01909137
:104600000D01019790930D0180930C0160E971E019
:1046100080E090E00E94CE060E94D315EECEAC0161
:10462000405F5F4F241735074CF430925F032092B0
:104630005E0330925D0320925C0326CFAC01485E9E
:104640005F4F24173507ACF38096281739073CF4E1
:1046500082E090E090935F0380935E03EACF43E0B3
:1046600050E050935F0340935E038FEF9FEF909372
:104670005D0380935C0308CF0F5F1F4F9AE0E90E44
:10468000F11C08CF029729F489E00E942D0661E011
:1046900013CE89E00E942D0661E08AE00E942D067B
:1046A00061E00ECEC430D10509F4C0C0259709F0F1
:1046B00054CE8091A3029091A4028736910509F00F
:1046C0004CCE0E94051682E0809380038093810384
:1046D00081E090E090937F0380937E0390937D032D
:1046E00080937C038EE090E090937903809378032D
:1046F00090937B0380937A0361E87AE08CE693E001
:104700000E9476170E94491460ED77E080E090E007
:104710000E94CE06D092B10220CE8091A302909149
:10472000A402069709F019CE0E94051682E0809334
:10473000800380938103D0937F03C0937E03D09343
:104740007D03C0937C0388E190E09093790380938C
:1047500078038EE090E090937B0380937A0364EA81
:104760007AE08CE693E00E9476170E94491460ED8F
:1047700077E080E090E00E94CE06D092AD0280917A
:104780000E0190910F01019690930F0180930E01FD
:10479000E4CDC091A302D091A402CE30D10509F09E
:1047A000DCCD0E94051682E0809380038093810314
:1047B00081E090E090937F0380937E0390937D034C
:1047C00080937C0388E190E0909379038093780351
:1047D000D0937B03C0937A036CE97AE0C2CF8091D7
:1047E000A3029091A4024C9709F0B7CD0E94051640
:1047F00082E0809380038093810381E090E0909336
:104800007F0380937E0390937D0380937C0388E1F4
:1048100090E090937903809378038EE090E09093FA
:104820007B0380937A0364E97AE09BCF8091A302B3
:104830009091A4028B9709F090CD0E94051682E01A
:10484000809380038093810381E090E090937F03C5
:1048500080937E0390937D0380937C0388E190E0B6
:1048600090937903809378038EE090E090937B039C
:1048700080937A036CE87AE074CF0E94051681E099
:10488000809380038093810381E090E090937F0385
:1048900080937E0390937D0380937C03CCE1D0E0F2
:1048A000D0937903C09378038EE090E090937B03DC
:1048B00080937A0368E67AE08CE693E00E947617AC
:1048C00082E0809380038093810385E090E0909361
:1048D000790380937803D0937B03C0937A0369E5CF
:1048E0007AE08CE693E00E9403076091A302709146
:1048F000A402072E000C880B990B97FF43C00E945F
:104900007C166EE771E08CE693E00E9427160E9409
:10491000491468E873E180E090E00E94CE061092AE
:10492000B1021092A6021092AD0281E08093AE0215
:1049300081E090E090930F0180930E0183E090E07E
:1049400090930D0180930C011092A2021092A1028B
:104950001092A4021092A30282E390E090930B01C4
:1049600080930A0180E090E0892B11F40C94251CBF
:104970000E949107882311F40C94251C0E940000CA
:104980000C94251C4AE00E943616BBCF86E591E0C8
:1049900090936D0380936C0380918B0390918C03B3
:1049A000009711F00C94AD2608958F929F92AF92CC
:1049B000BF92CF92DF92EF92FF92CF93DF93EC0101
:1049C000688179818A819B816115710581059105D5
:1049D00021F464E279ED8BE597E02DE133EF41E0DE
:1049E00050E00E94792549015A019B01AC01A7EAD8
:1049F000B1E40E9498256B017C01ACEEB4EFA501F7
:104A000094010E94A625C60ED71EE81EF91EF7FEC9
:104A100006C081E0C81AD108E10880E8F80AC88217
:104A2000D982EA82FB82C701B6019F77DF91CF91DD
:104A3000FF90EF90DF90CF90BF90AF909F908F90BE
:104A400008958F929F92AF92BF92CF92DF92EF9292
:104A5000FF9260911001709111018091120190916B
:104A60001301611571058105910521F464E279ED69
:104A70008BE597E02DE133EF41E050E00E9479258E
:104A800049015A019B01AC01A7EAB1E40E949825B3
:104A90006B017C01ACEEB4EFA50194010E94A62548
:104AA000C60ED71EE81EF91EF7FE06C081E0C81A22
:104AB000D108E10880E8F80AC0921001D0921101F3
:104AC000E0921201F0921301C701B6019F77FF90A7
:104AD000EF90DF90CF90BF90AF909F908F90089510
:104AE0006093100170931101809312019093130150
:104AF0000895052E97FB1EF400940E94902557FD03
:104B000007D00E94AB2507FC03D04EF40C949025EF
:104B100050954095309521953F4F4F4F5F4F0895E9
:104B200090958095709561957F4F8F4F9F4F089519
:104B30000E94CD25A59F900DB49F900DA49F800D40
:104B4000911D11240895B7FF0C9498250E94982573
:104B5000821B930B0895A1E21A2EAA1BBB1BFD0119
:104B60000DC0AA1FBB1FEE1FFF1FA217B307E4074C
:104B7000F50720F0A21BB30BE40BF50B661F771FA4
:104B8000881F991F1A9469F7609570958095909584
:104B90009B01AC01BD01CF010895A29FB001B39F5D
:104BA000C001A39F700D811D1124911DB29F700D36
:104BB000811D1124911D089597FB072E16F4009472
:104BC00007D077FD09D00E94F72507FC05D03EF4F9
:104BD000909581959F4F0895709561957F4F0895A9
:104BE0000E94CD25B7FF0895821B930B0895AA1B41
:104BF000BB1B51E107C0AA1FBB1FA617B70710F0C8
:104C0000A61BB70B881F991F5A95A9F780959095F9
:104C1000BC01CD010895EE0FFF1F0590F491E02D2A
:104C200009940F931F93CF93DF938230910510F473
:104C300082E090E0E091AE03F091AF0330E020E03D
:104C4000B0E0A0E0309799F42115310509F44AC08D
:104C5000281B390B24303105D8F58A819B816115D9
:104C6000710589F1FB0193838283FE0111C04081AC
:104C700051810281138148175907E0F048175907FD
:104C800099F4109761F012960C93129713961C9357
:104C90003296CF01DF91CF911F910F91089500932C
:104CA000AE031093AF03F4CF2115310551F0421735
:104CB000530738F0A901DB019A01BD01DF01F801BA
:104CC000C1CFEF01F9CF9093AF038093AE03CDCF67
:104CD000FE01E20FF31F8193919322503109398332
:104CE0002883D7CF2091AC033091AD03232B41F41F
:104CF00020911601309117013093AD032093AC033E
:104D000020911401309115012115310541F42DB781
:104D10003EB74091180150911901241B350BE091C9
:104D2000AC03F091AD03E217F307A0F42E1B3F0B89
:104D30002817390778F0AC014E5F5F4F241735070D
:104D400048F04E0F5F1F5093AD034093AC03819327
:104D500091939FCFF0E0E0E09CCFCF93DF9300975B
:104D6000E9F0FC01329713821282A091AE03B09158
:104D7000AF03ED0130E020E01097A1F420813181F4
:104D8000820F931F2091AC033091AD032817390790
:104D900009F061C0F093AD03E093AC03DF91CF91D4
:104DA0000895EA01CE17DF07E8F54A815B819E018D
:104DB00041155105B1F7E901FB83EA834991599106
:104DC000C40FD51FEC17FD0761F480819181029615
:104DD000840F951FE90199838883828193819B8346
:104DE0008A83F0E0E0E012968D919C9113970097F2
:104DF000B9F52D913C911197CD010296820F931F29
:104E00002091AC033091AD032817390739F630975C
:104E100051F51092AF031092AE03B093AD03A0937F
:104E2000AC03BCCFD383C28340815181840F951FD3
:104E3000C817D90761F44E5F5F4F88819981480F89
:104E4000591F518340838A819B81938382832115DB
:104E5000310509F0B0CFF093AF03E093AE039ECFDE
:104E6000FD01DC01C0CF13821282D7CF81E090E038
:104E7000F8940C944227DC0101C06D9341505040DE
:104E8000E0F7089515E0CFEAD5E004C0FE010E94E6
:0E4E90000B262196C03BD107C9F7F894FFCF3F
:104E9E0014000600020005000300320003000100AA
:104EAE00010000000000B00380003F0006005B0020
:104EBE004F0066006D007D0007007F006F00000050
:104ECE000000C707270754071408850763077707ED
:104EDE00000000001C12EF11D015DA05E811D511F3
:104EEE00C61100000000D00C2707D0155F11DB099A
:104EFE00DA054A104D0F690F5D0FB210DA05960AEA
:104F0E007A154B099409960E790E010EA20D0D0A13
:024F1E00000091
:00000001FF
